:100000000C942A000C949C040C949C040C949C0466
:100010000C949C040C949C040C949C040C949C04E0
:100020000C949C040C949C040C949C040C949C04D0
:100030000C949C040C949C040C949C040C949C04C0
:100040000C949C040C949C040C949C040C949C04B0
:100050000C949C0411241FBECFE5D8E0DEBFCDBFB9
:0C0060000E9466000C948404F894FFCF0A
:10006C004D61646520627920526179616E00616E28
:10007C0064204D6F68616D6D6400537461727420FF
:10008C00546865204361723A00466F72776F7264F0
:10009C00650053746F70004D6F766520546F20426D
:1000AC0061636B004D6F766520546F204C656674F0
:0F00BC00004D6F766520546F205269676874009D
:1000CC000E9474020E94CE030E9479040E946E0466
:1000DC0062E081E00E945D046CE670E080E00E94CA
:1000EC00B30363E082E00E945D046AE770E080E0A5
:1000FC000E94B3032FEF3BE742E9215030404040D0
:10010C00E1F700C000000E948F0462E081E00E94D1
:10011C005D0466E870E080E00E94B3038AE50E940B
:10012C00D6028FEF93ED20E3815090402040E1F711
:10013C0000C0000064E082E00E945D0465E970E0AC
:10014C0080E00E94B3030E94E3030E944C043FEF43
:10015C0043ED20E3315040402040E1F700C0000067
:10016C006F3171058105910528F70E9437040E94B3
:10017C008F0464E082E00E945D046EE970E080E030
:10018C000E94B3033FEF49E688E131504040804084
:10019C00E1F700C0000080E00E94D6029FEF21EE44
:1001AC0034E0915020403040E1F700C000000E9444
:1001BC004C044B015C014FEF83ED90E341508040C8
:1001CC009040E1F700C0000084EB0E94D6022FEFB4
:1001DC0033EC49E0215030404040E1F700C00000D2
:1001EC000E944C046B017C018FEF93ED20E3815056
:1001FC0090402040E1F700C000008AE50E94D60242
:10020C003FEF41EE84E0315040408040E1F700C0C8
:10021C000000C814D904EA04FB04D0F50E9422049F
:10022C009FEF29E638E1915020403040E1F700C0C3
:10023C0000000E948F0463E082E00E945D0463EA88
:10024C0070E080E00E94B3030E94F8034FEF89E650
:10025C0098E1415080409040E1F700C000000E94BE
:10026C008F040E94370463E081E00E945D0460EB20
:10027C0070E080E00E94B3032FEF33ED40E3215098
:10028C0030404040E1F700C000000E948F0452CF84
:10029C000E9422048FEF99E628E181509040204083
:1002AC00E1F700C000000E948F0463E082E00E942E
:1002BC005D0463EA70E080E00E94B3030E940D04C9
:1002CC003FEF49E688E1315040408040E1F700C003
:1002DC0000000E948F040E94370463E081E00E94BA
:1002EC005D046DEB70E080E00E94B3039FEF23EDA3
:1002FC0030E3915020403040E1F700C000000E94F4
:04030C008F0418CF73
:10031000843008F072C0683008F06FC0423008F0D6
:100320006CC0813001F130F08230B1F1833009F4DA
:100330004CC00895413059F42AB381E090E002C0E6
:10034000880F991F6A95E2F7822B8ABB08952AB31A
:1003500081E090E002C0880F991F6A95E2F78095CE
:1003600082238ABB0895413059F427B381E090E09D
:1003700002C0880F991F6A95E2F7822B87BB089508
:1003800027B381E090E002C0880F991F6A95E2F7D9
:100390008095822387BB0895413059F424B381E0CE
:1003A00090E002C0880F991F6A95E2F7822B84BB08
:1003B000089524B381E090E002C0880F991F6A95E8
:1003C000E2F78095822384BB0895413059F421B32C
:1003D00081E090E002C0880F991F6A95E2F7822BB6
:1003E00081BB089521B381E090E002C0880F991F7E
:0C03F0006A95E2F78095822381BB089596
:1003FC00843008F072C0683008F06FC0423008F0EA
:10040C006CC0813001F130F08230B1F1833009F4ED
:10041C004CC00895413059F42BB381E090E002C0F8
:10042C00880F991F6A95E2F7822B8BBB08952BB32B
:10043C0081E090E002C0880F991F6A95E2F78095E1
:10044C0082238BBB0895413059F428B381E090E0AE
:10045C0002C0880F991F6A95E2F7822B88BB08951A
:10046C0028B381E090E002C0880F991F6A95E2F7EB
:10047C008095822388BB0895413059F425B381E0DF
:10048C0090E002C0880F991F6A95E2F7822B85BB1A
:10049C00089525B381E090E002C0880F991F6A95FA
:1004AC00E2F78095822385BB0895413059F422B33D
:1004BC0081E090E002C0880F991F6A95E2F7822BC9
:1004CC0082BB089522B381E090E002C0880F991F8F
:0C04DC006A95E2F78095822382BB0895A8
:1004E80041E061E081E00E94880141E062E081E052
:1004F8000E94880141E063E081E00E94880141E0B8
:1005080064E080E00E94880141E065E080E00E94AC
:10051800880141E066E080E00E94880141E067E0F0
:1005280080E00E9488012FE785EB91E02150804010
:100538009040E1F700C0000040E061E081E00E94E7
:10054800FE0140E062E081E00E94FE0182E00E943C
:100558000F0341E063E081E00E94FE018FE99FE024
:100568000197F1F700C0000040E063E081E00E94DD
:10057800FE0188E20E94470390EF9A95F1F78FE019
:100588000E94470320EF2A95F1F781E00E94470374
:100598008FE39FE10197F1F700C0000086E00E9419
:0405A8004703089568
:1005AC008A35A9F0843B21F1811132C041E066E02B
:1005BC0083E00E94FE018FE99FE00197F1F700C0F4
:1005CC00000040E066E083E00E94FE01089541E0F7
:1005DC0066E083E00E94FE018FE697E10197F1F758
:1005EC0000C0000040E066E083E00E94FE01089538
:1005FC0041E066E083E00E94FE018FE39FE10197FA
:10060C00F1F700C0000040E066E083E00E94FE01CC
:02061C0008953F
:10061E00CF93C82F80FF06C041E064E080E00E94C7
:10062E00FE0105C040E064E080E00E94FE01C1FFD3
:10063E0006C041E065E080E00E94FE0105C040E09A
:10064E0065E080E00E94FE01C2FF06C041E066E068
:10065E0080E00E94FE0105C040E066E080E00E945E
:10066E00FE01C3FF06C041E067E080E00E94FE018C
:10067E0005C040E067E080E00E94FE01CF91089542
:10068E00CF93C82F40E061E081E00E94FE0140E080
:10069E0062E081E00E94FE018C2F82958F700E9495
:1006AE000F0341E063E081E00E94FE018FE99FE0CD
:1006BE000197F1F700C0000040E063E081E00E9486
:1006CE00FE018C2F0E940F0341E063E081E00E9447
:1006DE00FE018FE99FE00197F1F700C0000040E0B6
:0C06EE0063E081E00E94FE01CF910895BE
:1006FA00CF93C82F41E061E081E00E94FE0140E013
:10070A0062E081E00E94FE018C2F82958F700E9428
:10071A000F0341E063E081E00E94FE018FE99FE060
:10072A000197F1F700C0000040E063E081E00E9419
:10073A00FE018C2F0E940F0341E063E081E00E94DA
:10074A00FE018FE99FE00197F1F700C0000040E049
:0C075A0063E081E00E94FE01CF91089551
:10076600CF92DF92EF92CF936B01E82EC0E003C0E9
:100776000E947D03CF5FAE2DC6018C0F911DA11D7A
:10078600FC018491A7FD80818111F2CFCF91EF907A
:06079600DF90CF900895F2
:10079C0041E063E082E00E94880141E064E082E095
:1007AC000E94880141E065E082E00E94880141E0FE
:0A07BC0066E082E00E9488010895C3
:1007C60041E063E082E00E94FE0140E064E082E0F6
:1007D6000E94FE0141E065E082E00E94FE0140E0E9
:0A07E60066E082E00E94FE01089523
:1007F00041E063E082E00E94FE0140E064E082E0CC
:100800000E94FE0140E065E082E00E94FE0141E0BE
:0A08100066E082E00E94FE010895F8
:10081A0040E063E082E00E94FE0141E064E082E0A1
:10082A000E94FE0141E065E082E00E94FE0140E094
:0A083A0066E082E00E94FE010895CE
:1008440040E063E082E00E94FE0141E064E082E077
:100854000E94FE0140E065E082E00E94FE0141E06A
:0A08640066E082E00E94FE010895A4
:10086E0040E063E082E00E94FE0140E064E082E04E
:10087E000E94FE0140E065E082E00E94FE0140E041
:0A088E0066E082E00E94FE0108957A
:1008980041E060E080E00E94FE0185E38A95F1F77F
:1008A800000040E060E080E00E94FE010E949904A0
:0208B800FFCF70
:1008BA00813019F0823039F00895862F8F70806860
:1008CA000E9447030895862F8F70806C0E94470309
:0208DA0008957F
:1008DC0041E060E080E00E94880140E061E080E05F
:0608EC000E94880108953E
:1008F20041E066E083E00E94880140E066E083E038
:060902000E94FE010895B1
:10090800EC010E94A1040E94A004CE010E94A2044E
:06091800CE010E949E04C6
:10091E0081E00E9447038FE39FE10197F1F700C04A
:04092E000000089528
:060932001DBC1CBC089571
:040938000C9400001B
:04093C000E943400E1
:02094000089518
:02094200089516
:02094400089514
:00000001FF
